:020000040000FA
:1000000006EF06F0F76A140FF66E000EF7220900ED
:10001000F5501200280C0106F76A280FF66E000E44
:10002000F7220900F550120053697374656D612061
:10003000436F6E74726F6C650000F76A4A0FF66E5C
:10004000000EF7220900F5501200497272694761EB
:1000500020436572746F0000F76A680FF66E000E39
:10006000F7220900F55012002054656D702E2041D2
:100070006D6269656E746500F76A880FF66E000E32
:10008000F7220900F550120020556D69646164651E
:1000900020646F20536F6C6F0000F76AAA0FF66E32
:1000A000000EF7220900F5501200426F6D62617E6A
:1000B0002000F76AC20FF66E000EF7220900F55015
:1000C00012002056616C76756C617E00F76ADC0F59
:1000D000F66E000EF7220900F5501200416A7573A2
:1000E000746520536574706F696E7400F76AFC0F55
:1000F000F66E000EF7220900F550120020507265CE
:10010000737320456E7465720000F76A1A0FF66EFD
:10011000010EF7220900F550120020416A75737430
:100120006520536574706F696E740000F76A3C0F48
:10013000F66E010EF7220900F55012004F4E3D20D9
:10014000256C6400F76A540FF66E010EF722090061
:10015000F55012004F46463D20256C640000EA6AC7
:100160002A0EE96EEF500DE0020E016E006A002EBD
:10017000FED7012EFBD7970E006E002EFED7EF2E76
:10018000F3D7000C31B002D08A9E01D08A8E939EA4
:1001900031B202D08A9C01D08A8C939C31B402D0B7
:1001A0008A9A01D08A8A939A31B602D08A9801D06D
:1001B0008A8893980000929A898A00D000D0929AF7
:1001C000899A000C326A929A898A0000938E329042
:1001D00081BE3280938C329281BC3282938A329477
:1001E00081BA32849388329681B83286929A899AFB
:1001F00032C001F0000C929889880000E3DF01C052
:1002000031F0E0DF01C030F03138006EF00E001642
:1002100000503010016E10EF01F092968996EBD7E6
:1002200001C030F001BEFBD72E5203E092968986C2
:1002300002D0929689960000929889980000929A2E
:10024000899A2F38306E0F0E301630C031F09ADF99
:100250002F500F0B306E316E95DF000C9296899601
:1002600092988998929A899A0F0E2A6E78DF1C6A62
:100270001C50020808E3030E316E84DF050E2A6E5F
:100280006EDF1C2AF5D7020E316E7CDF1C6A1C5013
:1002900003080EE3036A1C50F2CF1DF0F29EB2DE9B
:1002A0001DBEF28E1E6E2E6A2F6EB7DF1C2AEFD790
:1002B0002FEF06F02B2C01D003D0400E2C6E01D076
:1002C0002C6A010E2A5C2C262C5080092D6E2E6A79
:1002D0002F6EA3DF000C29500C0A05E0060A0BE084
:1002E000020A0FE013D02E6A010E2F6E96DF020E67
:1002F0002A6E35DF11D0010E2A6E020E2B6EDADF68
:100300000BD02E6A100E2F6E88DF06D0010E2E6ED7
:1003100029C02FF082DF00D0000C010E2A6E2B6E58
:10032000C9DF100E1C6E200E296ED5DF1C2EFBD7E8
:10033000010E2A6E020E2B6EBDDF100E1C6E200EFB
:10034000296EC9DF1C2EFBD7130E006E002EFED7C0
:1003500000D0000C1C34006E0036FC0E0016C2509B
:10036000C30B0010C26E130E006E002EFED700D01D
:10037000C282C2B2FED7C3CF1DF0C4CF1EF01DC0D3
:1003800001F01EC002F0000C8E0E006E1DC001F0C8
:100390001CC002F0036A015209E102C001F0026AC6
:1003A000080E005E015202E1006A08D0D89001BE3A
:1003B00004D0023601360006F9D7019E000C295000
:1003C000D8B471D0006E2D50D8B46DD0002604E39F
:1003D000810E002668E204D07F0E005E64E363E0D5
:1003E0002AC031F02E50311A2A8E2E8E2C50300217
:1003F000F4CF33F02B502F02F4CF03F0F3CF32F0D1
:100400003002F3503326F4503222000E03222C50D7
:100410002F02F3503326F4503222000E026A0322D8
:1004200002222A503002F3503226F4500322000EEA
:1004300002222A502F02F3500326F4500222000E0B
:10044000016A01222C502E02F3503226F45003226E
:10045000000E022201222B502E02F3500326F450EC
:100460000222000E01222A502E02F3500226F450DE
:100470000122002A01BE05D032360336023601368B
:100480000006000E32AE0AD0032A022201220150D9
:1004900005E1025003E1035001E1002A31BE018E63
:1004A00031AE019E04D0006A016A026A036A000C40
:1004B000958883B808D005B005D0065202E006063C
:1004C00001D0058002D0066A0590958C83BC08D0C7
:1004D00005B205D0085202E0080601D0058202D01C
:1004E000086A0592958A83BA08D005B405D00752E8
:1004F00002E0070601D0058402D0076A0594000CCB
:100500002950B608296E036A2AC02DF02A8ED89089
:100510002A322B322C320332023201320032292E9F
:10052000F6D72DAE0BD0001E011E021E031E002AA0
:10053000D8B4012AD8B4022AD8B4032A04EF03F0AD
:10054000006A016A026A036A316A326A336A346A8B
:1005500030502F102E102D102CE0200E356ED8901C
:1005600029362A362B362C36313632363336343667
:100570003050345C08E12F50335C05E12E50325C82
:1005800002E12D50315C0FE32D50315E2E50D8A08A
:100590002E3C325E2F50D8A02F3C335E3050D8A076
:1005A000303C345ED8800036013602360336352EB4
:1005B000D6D7EA6A310EE96E000CE950216E205060
:1005C000236E19E01FC02CF01EC02BF01DC02AF0B6
:1005D0001CC029F0306A2F6A200E2E6E820E2D6EFE
:1005E000EEDE03C01FF002C01EF001C01DF000C00F
:1005F0001CF0232EE7D71FC02CF01EC02BF01DC00F
:100600002AF01CC029F07CD703C01FF002C01EF0E6
:1006100001C01DF000C01CF01FAE0DD02106218AC4
:100620001C1E1D1E1E1E1F1E1C2AD8B41D2AD8B437
:100630001E2AD8B41F2A3B0E286E9A0E276ECA0EA9
:10064000266E256A0A0E236E2050D8B4212A1FC0B8
:100650002CF01EC02BF01DC02AF01CC029F028C0B1
:1006600030F027C02FF026C02EF025C02DF068DF17
:100670000150EFCF1CF0ECCF1DF0ECCF1EF0ECCF13
:100680001FF000520FE12028235C0CE021500CE009
:100690000F0B235C01E037E221BE35D021BC04D032
:1006A000200E2DD0200E211621AA0CD0219A2050E8
:1006B000D8A421060050216E2D0E296E0CDE21508B
:1006C000006E216A2050235C0AE10050216E2E0E3C
:1006D000296E01DE2150006E200E2116000E300E14
:1006E00021AA0DD0219A2050D8A421060050216EB5
:1006F0002D0E296EF0DD2150006E216A300E00268D
:1007000000C029F0E8DD28C02CF027C02BF026C05F
:100710002AF025C029F0306A2F6A2E6A0A0E2D6E43
:100720000FDF03C028F002C027F001C026F000C090
:1007300025F0232E8CD7000CEACF25F0E9CF24F04A
:100740001EAE08D0248E24A8242A1D1E1E1E1D2A7B
:10075000D8B41E2A1E38F009206E2026E20F216E22
:10076000320F236E1E500F0B212621262326E90F60
:10077000226E222622261D380F0B22262326223601
:100780002336231E23361D500F0B23262036070E3B
:100790001F6E0A0E22062326FDE321062226FDE314
:1007A00020062126FDE31F062026FDE3EA6A1F0E30
:1007B000E96E070E2414249CE906241407E124B8EA
:1007C000E92A24B803D0200E006E1CD0E926230E9F
:1007D000E95CD8B4248CEF50006E08E124BC06D04C
:1007E00024B81BD024B602D0200E0BD024AE06D0E5
:1007F0002D0E006EED50249C249E04D02486249857
:10080000300E0026EACF1EF0E9CF1DF000C029F01F
:1008100062DD1EC0EAFF1DC0E9FFEE5024ACD7D751
:10082000000C095006080DE143DE05A205D00A5070
:10083000D8B40B060A0605D005A003D00A2AD8B4FE
:100840000B2A095007080DE133DE05A205D00C5034
:10085000D8B40D060C0605D005A003D00C2AD8B4D8
:100860000D2A000C0950010A12E0030A36E0010AC1
:10087000D8B461D0070AD8B491D0010AD8B4F8D05E
:10088000030AD8B420D1010AD8B44FD181D145DDB3
:10089000010E2A6E2B6E0EDD1C6A1C500CEC00F053
:1008A0001C2A006E296E17DD100E1C5CF6E1030E8B
:1008B0002A6E020E2B6EFEDC1C6A1C501DEC00F032
:1008C0001C2A006E296E07DD0C0E1C5CF6E1F0DDC3
:1008D00005A402D0020E096E5CD11FDD010E2A6E46
:1008E0002B6EE8DC1C6A1C502CEC00F01C2A006EFD
:1008F000296EF1DC0F0E1C5CF6E1060E2A6E020E6C
:100900002B6ED8DC890EE96E19C01FF018C01EF0DE
:1009100017C01DF016C01CF0020E206E4EDE200E19
:10092000296ED9DC430E296ED6DCC2DD05A202D0C9
:10093000030E096E2ED1F1DC010E2A6E2B6EBADC8D
:100940001C6A1C503CEC00F01C2A006E296EC3DCB3
:10095000100E1C5CF6E1060E2A6E020E2B6EAADC4F
:10096000890EE96E15C01FF014C01EF013C01DF0F3
:1009700012C01CF0020E206E20DE200E296EABDCB1
:10098000430E296EA8DC94DD05A003D0020E096E8B
:1009900004D005A202D0040E096EFBD0BEDC010E0D
:1009A0002A6E2B6E87DC1C6A1C504DEC00F01C2A52
:1009B000006E296E90DC070E1C5CF6E183A00FD060
:1009C0000A0E2A6E010E2B6E75DC200E296E83DC5A
:1009D0004F0E296E80DC4E0E296E7DDC10D083B068
:1009E0000ED00A0E2A6E010E2B6E64DC4F0E296E9D
:1009F00072DC460E296E6FDC460E296E6CDC010E31
:100A00002A6E020E2B6E56DC1C6A1C5059EC00F04C
:100A10001C2A006E296E5FDC090E1C5CF6E183A2C5
:100A20000CD00B0E2A6E020E2B6E44DC4F0E296E7C
:100A300052DC4E0E296E4FDC10D083B20ED00A0E5F
:100A40002A6E020E2B6E36DC4F0E296E44DC460EEB
:100A5000296E41DC460E296E3EDC2ADD05A003D05E
:100A6000030E096E04D005A202D0050E096E91D0C6
:100A700054DC010E2A6E2B6E1DDC1C6A1C5066ECC9
:100A800000F01C2A006E296E26DC0F0E1C5CF6E1BD
:100A9000030E2A6E020E2B6E0DDC1C6A1C5076ECC7
:100AA00000F01C2A006E296E16DC0C0E1C5CF6E1B0
:100AB000FFDC05A403D0060E096E04D005A002D009
:100AC000040E096E66D029DC010E2A6E2B6E5AECDC
:100AD00001F01C6A1C5085EC00F01C2A006E296E87
:100AE0006BEC01F0100E1C5CF5E1040E2A6E020E98
:100AF0002B6E5AEC01F01C6A1C5096EC00F01C2A7C
:100B0000006E296E6BEC01F0040E1C5CF5E1100E1A
:100B1000E96E0BC01EF00AC01DF00EDE82DEC8DCDE
:100B200005A402D0070E096E34D08DEC01F0010E41
:100B30002A6E2B6E5AEC01F01C6A1C5066EC00F019
:100B40001C2A006E296E6BEC01F00F0E1C5CF5E1A7
:100B5000040E2A6E020E2B6E5AEC01F01C6A1C5019
:100B6000A2EC00F01C2A006E296E6BEC01F0050E61
:100B70001C5CF5E1100EE96E0DC01EF00CC01DF0FE
:100B8000DBDD4FDE95DC05A402D0050E096E01D039
:100B900000D090EF06F01DC024F02150241A24AE9E
:100BA00005D0D894D8901DBED8802FD01DC024F079
:100BB00020C025F01C50255E06E024AE26D0D8507B
:100BC000010AD86E22D021C025F01D50255E06E016
:100BD00024AE1BD0D850010AD86E17D022C025F001
:100BE0001E50255E06E024AE10D0D850010AD86E03
:100BF0000CD023C025F01F50255E06E024AE05D0A2
:100C0000D850010AD86E01D0D890000CF86AD09E56
:100C1000EA6AE96AC150C00B0F09C16E070EB46ED3
:100C2000059005920594066A076A086A010E096E26
:100C3000020E0A6E0B6A040E0C6E0D6A080E1A6E16
:100C4000010E1B6E720ED36EC150C00B0D09C16E2A
:100C5000C080C082C084C08EC2802EEF01F01B50C5
:100C60001A5C02E08DEC01F009C01BF095948C94A5
:100C7000020E1C6E960E2A6EAFEC00F01C2EFAD7F8
:100C80001C6AAAEC01F002C00FF001C00EF00FC008
:100C90001DF00EC01CF0C4EC01F003C02CF002C02B
:100CA0002BF001C02AF000C029F00A0E306E280E89
:100CB0002F6E200E2E6E770E2D6EDFEC01F003C02E
:100CC00019F002C018F001C017F000C016F0010EB4
:100CD0001C6EAAEC01F002C011F001C010F011C0AE
:100CE0001DF010C01CF0C4EC01F003C02CF002C0D9
:100CF0002BF001C02AF000C029F00A0E306E280E39
:100D00002F6E200E2E6E770E2D6EDFEC01F003C0DD
:100D100015F002C014F001C013F000C012F0A2D50B
:100D2000DC0E2A6EAFEC00F00BC01DF00AC01CF008
:100D3000C4EC01F015C01FF014C01EF013C01DF06C
:100D400012C01CF003C023F002C022F001C021F049
:100D500000C020F020DF01E205E195928C829590A1
:100D60008C801DD00DC01DF00CC01CF0C4EC01F037
:100D700003C01FF002C01EF001C01DF000C01CF037
:100D800015C023F014C022F013C021F012C020F0CF
:100D900002DF01E204E195928C9295908C909594FB
:100DA0008C84020E1C6E960E2A6EAFEC00F01C2E88
:0A0DB000FAD709C01AF053D7030068
:020000040030CA
:0E0000002008191E000381000FC00FE00F4002
:00000001FF
;PIC18F4550
